:020000040001F9
:10E2000018F09FE518F09FE518F09FE518F09FE5DE
:10E2100018F09FE518F09FE518F09FE518F09FE5CE
:10E2200084E2010040E2010044E2010048E2010012
:10E230004CE2010054E2010050E2010058E201000A
:10E24000820000EA830000EA840000EA850000EA18
:10E25000B20000EA850000EAA80000EA240D4000B0
:10E26000983100000CB74000200000001CBC4000AA
:10E27000F00100002CB74000F00400000CBE40008C
:10E28000F0010000DF00A0E300F021E130001FE515
:10E2900030101FE5003081E00040A0E103D0A0E194
:10E2A00084219FE5030054E104208434FCFFFF3AFD
:10E2B000D700A0E300F021E15C001FE55C101FE542
:10E2C000003081E00040A0E103D0A0E158219FE5AB
:10E2D000030054E104208434FCFFFF3ADB00A0E398
:10E2E00000F021E188001FE588101FE5003081E083
:10E2F0000040A0E103D0A0E12C219FE5030054E100
:10E3000004208434FCFFFF3AD200A0E300F021E1B6
:10E31000AC001FE5AC101FE5003081E00040A0E13B
:10E3200003D0A0E104219FE5030054E104208434DC
:10E33000FCFFFF3AD100A0E300F021E1C8001FE597
:10E34000C8101FE5003081E00040A0E103D0A0E14B
:10E35000DC209FE5030054E104208434FCFFFF3AF5
:10E360000080A0E30090A0E300A0A0E300B0A0E341
:10E3700000C0A0E3D300A0E300F021E110011FE5FD
:10E3800010111FE5003081E00040A0E103D0A0E1C2
:10E39000A0209FE5030054E104208434FCFFFF3AF1
:10E3A0000E0000EB170000EB0000A0E30010A0E35C
:10E3B0000020A0E30030A0E30040A0E30050A0E371
:10E3C0000060A0E30070A0E30080A0E30090A0E361
:10E3D00000A0A0E300B0A0E300C0A0E35C2100EA3D
:10E3E00054009FE554109FE554209FE50130A0E1C3
:10E3F000023083E0030051E1044090340440813452
:10E40000FBFFFF3A1EFF2FE138009FE538109FE524
:10E41000003081E00040A0E10020A0E3030054E1CF
:10E4200004208434FCFFFF3A1EFF2FE1AAAAAAAA07
:10E43000CCCCCCCCDDDDDDDDBBBBBBBBC4EB02009B
:10E440000008400024050000240D40009831000021
:10E4500004F01FE59D21000004F01FE59F2100004E
:10E4600004F01FE5A121000004F01FE5A321000036
:10E4700004F01FE5A52100000000000000000000DE
:10E48000000000000000000000000000000000008C
:10E49000000000000000000000000000000000007C
:10E4A000000000000000000000000000000000006C
:10E4B000000000000000000000000000000000005C
:10E4C000000000000000000000000000000000004C
:10E4D000000000000000000000000000000000003C
:10E4E000000000000000000000000000000000002C
:10E4F000000000000000000000000000000000001C
:10E500000F502DE94D0400FA0F50BDE804F05EE213
:10E5100000000000000000000000000000000000FB
:10E520000F502DE94C0400FA0F50BDE804F05EE2F4
:10E53000002104E00222521C0A2AFCDB491C814211
:10E54000F8DB70470200303A092A02D81106090E9A
:10E550000CE00200613A052A01D8573804E00200B5
:10E56000413A052A02D837380106090E08007047DB
:10E5700030B5040000780D00FFF7E4FF0300607879
:10E580002B280ED0032028706078222807D0FFF7B0
:10E59000D9FF0A214B4318180006000E30BD1800A1
:10E5A00030BD18000221297030BD032210B5C90109
:10E5B0005202BF4B8C1804431869A04206D0586918
:10E5C000000D000558610A20FFF7B2FF1C6110BD65
:10E5D000B84FB94EB94CB64D387800282FD03068B6
:10E5E00011282CD9B6480178432928D1316841181F
:10E5F0002039C97F222922D1316841182039897FE9
:10E6000022291CD1316841182039497F4E2905D073
:10E61000316840182038407F452810D1A848102282
:10E62000A8A100F0B4FB002819D0ABA00DF02AFB84
:10E63000002030603870A248802100F075FB3878E7
:10E64000002875D030681B2872D9002038709C488B
:10E65000316841182039C97F222902D005E0A3A0E2
:10E66000E4E797480078432801D0A5A071E0002096
:10E67000306093481122A7A100F089FB00286AD1DD
:10E680001120E0718E488D4911300831FFF770FF7D
:10E690002071E079217A401800068949000EE07166
:10E6A000081886490831FFF763FF6070E079217A26
:10E6B000401800068249000EE07108187F490831B1
:10E6C000FFF756FFA070E079217A401800067C49D8
:10E6D000000EE071081879490831FFF749FFE07032
:10E6E000E079217A401800067549000EE07108189B
:10E6F00072490831FFF73CFF6071E079217A4018D8
:10E70000E0716078C00708D00120207003202071DC
:10E7100085A00DF0B7FA89A01BE002202070E178F7
:10E72000002906D02079012805D0002810D012E059
:10E7300017E08AA00DE0012904D0022904D00329A2
:10E7400004D008E088A004E08BA002E08EA000E0E6
:10E7500091A00DF097FA002030605948802100F018
:10E76000E3FA2078012800D136E7E078002817D0B6
:10E770002179012922D00029F6D16079002873D0AF
:10E7800061788A48405CA071A178FFF70EFF60783D
:10E790004F21401C0006000EF9F724FB61707AE05F
:10E7A00069690720C002814369618148FFF7C0FEA3
:10E7B000686901218902084368610DE7012816D0C4
:10E7C000022833D00328CFD1607900284DD061785A
:10E7D0007648405CA071A178FFF7E7FE60784F2192
:10E7E000401C0006000EF9F7FDFA617041E0607907
:10E7F00000280FD061786D48405CA071A178FFF7C8
:10E80000D4FE60784F21401C0006000EF9F7EAFAAA
:10E81000617003E0A1786078FFF7C7FE686907219F
:10E82000C90208436861FF20A53028E0607900280C
:10E830000FD061785D48405CA071A178FFF7B5FE0C
:10E8400060784F21401C0006000EF9F7CBFA61708A
:10E8500003E0A1786078FFF7A8FE68690721C90284
:10E860000843686153480AE011E0A1786078FFF737
:10E870009CFE68690721C902084368614E48FFF79A
:10E8800057FE6869000D0005686149480DE0A178F0
:10E890006078FFF78AFE464B1800FFF749FE68696B
:10E8A00003210903084368611800FFF741FE93E65E
:10E8B00080148000CC0C4000D40C4000ED0C4000D3
:10E8C00080344000434D442B53494E574156452B0D
:10E8D0004F50454E0000000053696E6765776176C2
:10E8E0006520436C6F73650D0A00000053696E6705
:10E8F0006577617665204F70656E0D0A0000000037
:10E900005541525420436D64204572726F720D0A56
:10E9100000000000434D442B53494E574156452BB0
:10E92000434F4E462B000000496E76616C696420AF
:10E93000636F6D6D6D616E642E0A0000506C6561D1
:10E9400073652073656C65637420646F75626C65B4
:10E95000206368616E6E656C2E0A00005258206D4F
:10E960006F6465210A000000504E39204448312070
:10E970006D6F6465210A0000504E392044483320F1
:10E980006D6F6465210A0000504E392044483520DF
:10E990006D6F6465210A000053696E676C6577616D
:10E9A0007665206D6F6465210A000000FEE90200B3
:10E9B0007102000086060000540B000090488F4949
:10E9C000406801608F4941608F4981608F49C16013
:10E9D0008F4901618F4941618F4981618F49C161CF
:10E9E0008F4901628F4941628F4981628F49C162BB
:10E9F0008F4901638F4941638F4981638F49C163A7
:10EA00008F4901648F494164FF21013181645321A1
:10EA10000906C1640121C9040165002242658265BD
:10EA2000C2658949016642668266C26602674267BC
:10EA30008267C267854B010080310B604B235B0608
:10EA40004B600F23DB068B6005235B07CB60804B9D
:10EA50000B6109239B024B617E4B8B617E4BCB612B
:10EA60007E4B0B627E4B4B627E4B8B628123DB00C5
:10EA7000CB627D4B4B638A63CA637C4B0B644A64F5
:10EA80008A64CA640A654A658A65CA650A664A660E
:10EA90000523DB038B66764BCB66764B0B674A67A9
:10EAA0008A67CA6701210906FF3001300160724997
:10EAB0004160724981607249C16072490161724965
:10EAC0004161724981617249C16172490162724951
:10EAD0004162724981627249C1627249016372493D
:10EAE0004163724981634916C163704770494000B0
:10EAF0004118434840688030016101218902416129
:10EB0000416901225203114341617047C90140002C
:10EB100009183B4840688030891C01610321C90203
:10EB200041610721C90241617047354901224968A5
:10EB3000520280310028486901D0104300E0904320
:10EB4000486170472E4A53685B6D03605068806D62
:10EB500008607047FEE77CB50400007801282AD1E0
:10EB6000042928D3FFF72AFF6078254D31280ED0DD
:10EB7000322815D033281ED128782C0000261D34C9
:10EB8000012819D0022835D00721E01F11E001200B
:10EB900028702079FFF7AAFF194807210F3008E0F5
:10EBA0000220287020790021FFF7B0FF14480721C8
:10EBB00008300DF0A3F87CBD0120FFF7B6FF01A9D6
:10EBC0006846FFF7BFFF0099002907D0394A01982E
:10EBD0005043F9F707F9E071000A01E0FE20E07107
:10EBE0002072074809211D300DF088F868688030D0
:10EBF00046617CBDE6712672F3E700001032A0C3C7
:10EC0000F80C400000C1958200AF422F629C5C6A04
:10EC1000335B917F00552848008CD688E59F80188B
:10EC20000540B82F083C207035ED071C0C24DDD3BF
:10EC300008D00080233F41845093300078E926318A
:10EC40003534070020085217FF010000DCE595026B
:10EC5000820700400025201000C9080010100101A3
:10EC6000004E107C6E3B081241C42A0801000110BE
:10EC700048300000003CFF01020405070A0C0F1297
:10EC8000161A1E22262B30353A40454B51575D63EC
:10EC90006970767C83898F969CA2A8AEB4BABFC5F2
:10ECA000CACFD4D9DDE1E5E9EDF0F3F5F8FAFBFDE3
:10ECB0008207000010270000F0B506001FB40020F6
:10ECC00082B005004024019100901BE001992200D0
:10ECD0000F00300000F0DEFA049A059B801A99417B
:10ECE00010D310001900220000F0C4FA361A8F4128
:10ECF0000197009F22000120002100F0BBFA381884
:10ED00004D4100902000641E0028DFDC019B00982C
:10ED10002900320007B0F0BD1206120E01E00270A9
:10ED2000401C491EFBD270470022F5E713000A0081
:10ED300010B504001900FFF7EFFF200010BD30B53B
:10ED400005002A000B0010781C78521C5B1C002860
:10ED500001D0A042F7D0002C03D0002802D06D1CB7
:10ED6000EFE7280030BD10B5040005E00B78037014
:10ED7000401C002B00D0491C521EF7D2200010BDB1
:10ED8000421C0178401C0029FBD1801A704730B525
:10ED900005000020030000E05B1C934205D2EC5C00
:10EDA000C85C201A01D1002CF6D130BD0321001D12
:10EDB000401E037812021A43491EF9D5100070470D
:10EDC00003000833072210B5040E090221435B1E1D
:10EDD0001C7800022043521EF6D510BD030003220A
:10EDE0000870000A491C521EFAD51800704770B509
:10EDF00004000D00072310700E06000A3043090AB4
:10EE0000521C5B1EF7D52000290070BD70B50600AE
:10EE100000F056FD046805000A220021300000F0D1
:10EE20005DFA2C6070BD02004A40D30FDB0770B55D
:10EE300040002ED04A002BD0010E140E0002120208
:10EE40000919400A520A8418E50104005443000AD3
:10EE5000120A50432E04A4194219200CC543AA18C3
:10EE6000120C0125AD03521C521912047F392404DF
:10EE700000D0521C104301D44000491E02060C066B
:10EE8000C0092018401C120E4008802A02D003E05E
:10EE9000002070BD40084000002900DA002018431F
:10EEA00070BD0000F0B50E00070030005840C00FE4
:10EEB00087B004904800590040084908BC1A8841AE
:10EEC00005D2310038001E0017000B000200580068
:10EED000400810434CD0300D039040055900400DC0
:10EEE000490D0590401A4028029072DA180301215A
:10EEF000000B09050843019004980092002805D0F2
:10EF000001995242002088410092019002984021CC
:10EF10000A1A0199009800F0ADF905000C006B4643
:10EF200007CB00F0C8F9C019039A71410E0D0023F8
:10EF3000D71756401A007A40164344D0049A002A44
:10EF40002DD0029A012A039A15DC1205C01A9141AC
:10EF500001263605001C7141059ED20FD207009391
:10EF600001922A002300029600F00BFA07B0F0BDD0
:10EF700038003100FAE71605224A0F00B218C01A0D
:10EF8000B74101210905001C4F4100187F411100C4
:10EF900018187941E30F18436D19644113E0E20733
:10EFA0006D0815436408C2071443039A012612052D
:10EFB000C01A91413605001C7141CE07400830430C
:10EFC0004908C01851412A00230000F0CDF9CDE7CF
:10EFD000FFE7049801224000C117121A0023049889
:10EFE0008B41C4173100381AA141EEE730B4012437
:10EFF000E407634030BC55E730B40124E4076140C6
:10F0000030BC4FE70000E0FFF0B51FB488B000242B
:10F010000B990998A64648400999C00F490049082C
:10F0200009910B99C0074900490800900B91099973
:10F03000089808431CD00B990A98084318D00998DF
:10F0400001244000420D4800410D099824050003A9
:10F05000000B204309900B980003000B20430B90FA
:10F0600050181C490022401814000190100005E0BF
:10F07000002001000DB0F0BD032801DA030000E01C
:10F080000323C11A9C460AAE0AE05F0008ADED5B9F
:10F090004F00F75B7D430027AA187C41491C5B1E8B
:10F0A0006145F2DD410004AB5A522104120C0A43BF
:10F0B000240C401C0828DFDB019800990290704660
:10F0C00001910090059B049A0799069800F059F960
:10F0D000D0E700000DFCFFFFF0B50C005C40E40F32
:10F0E00085B0E40703944C00002664085900944658
:10F0F000490802002243029621D062460A431ED0EC
:10F100006200570D4A000E032303550D2D490124BB
:10F1100002002405781B1B0B360B401823432643A3
:10F12000614600901C00501AB44103D30098401C63
:10F13000009002E0009892185B41002803DA00205A
:10F14000010005B0F0BD0020012109050700864639
:10F1500011E064461D00141BB54106D36546521BE1
:10F16000B341074374460C43A646CD0740084908FF
:10F17000284392185B4105000D43EAD11000184363
:10F1800013D01900604650407140084306D06046D5
:10F19000101AB34106D20122002306E00022012307
:10F1A000DB0702E00122D2435310009874460105A8
:10F1B000381C6141029C039D0019694100F0D4F89C
:10F1C000BFE70000FD0300004B005B0870B5034380
:10F1D0000BD04B005C0D002633006542B341D417C1
:10F1E000AD1AA34102DB0020010070BD12053018EA
:10F1F000514170BD0EB50549029100210A000B0076
:10F200000091019100F0BDF803B000BD330400008F
:10F21000410040020122400AD205090E80187F29D0
:10F2200001DA00207047962903DC9622511AC84063
:10F2300070479639884070474A0009030123090B3B
:10F240001B051943094B520D9A4210B501DA0020F3
:10F2500010BD064B34339A4203DC9A1A00F01AF8B8
:10F2600010BD03495118884010BD0000FF03000085
:10F27000CDFBFFFF202A10B504DB0100203A9140AE
:10F28000002010BD914020239C1A0300E340194345
:10F29000904010BD202A10B504DB0800203AD04071
:10F2A000002110BD0B00D340D0402024A21A914071
:10F2B0000843190010BD202A10B506DBCB17080043
:10F2C000203A1041C1170B4306E00B001341D04018
:10F2D0002024A21A91400843190010BDF7B50E0072
:10F2E000009C00252778641C002F05D000F0D0F882
:10F2F0000068C05DC007F5D12B2F02D02D2F1ED086
:10F30000641E029A3100200000F0C6F8002E04D0DE
:10F310003268A24201D1009A32606A050224002AB2
:10F3200018DA0022454200268A413300751B9341BA
:10F3300009DB002240428A41110003B0F0BD0120E8
:10F3400080020543DDE700F0BBFA046000200121E4
:10F35000C907F2E70029F0DA00F0B2FA04600020F1
:10F36000C0434108E9E70000002B10B508DA00248B
:10F37000401C614192185B411A4301D14008400092
:10F3800010BDF0B505001FB482B00C0003D008001A
:10F39000F8F796ED02E0F8F794ED203002000090C7
:10F3A00021002800FFF766FF049B059A04000F0068
:10F3B00018431143084314D0180010431BD0009881
:10F3C00040210A1A05991800FFF764FF05000E0096
:10F3D000009A05990498FFF74DFF084305D00120D6
:10F3E00004E02000390007B0F0BD0020C11705433C
:10F3F0000E432C43374300990E986305401A790554
:10F40000E40A00220C43FD0A0A3002D50020010064
:10F41000E9E7010510190C9C69410D9D001969412E
:10F42000FFF7A2FFDFE700004A0009030123090BF1
:10F430001B0519430A4B520D9A4210B502DA0020FF
:10F44000010010BD064B34339A4203DC9A1AFFF7D1
:10F4500021FF10BD034BD218FFF70CFF10BD0000B9
:10F46000FF030000CDFBFFFF002910B504DB0124E2
:10F47000E40740428C412100002B04DB1C000123E7
:10F48000DB075242A341994200D1904210BD0000D7
:10F4900000487047D0EA0200F7B584B0002115009B
:10F4A000049C2078641C30280191029102D0002D28
:10F4B00017D017E0012001902078641C782804D030
:10F4C000582802D0002D0AD00CE0002D01D0102DBC
:10F4D00008D10020019020781025641C02E0082546
:10F4E00000E00A2500273E00E917009703911DE080
:10F4F000012101910099330069430A180092039990
:10F5000028003A0000F034F8009A130C0022C718C3
:10F510005141009A0E001004000C009001200004DC
:10F52000814201D3012002902078641C290000F060
:10F530005EF80028DCDA0598002807D0019800283A
:10F5400001D0641E00E0049C059804600298002825
:10F5500007D000F0B5F902210160C81E010007B014
:10F56000F0BD380C3104009A014338041043F6E72B
:10F57000F0B51FB4002086B000900190029006986C
:10F5800006990004000C04900798090C020400146A
:10F59000114300270790089D09983E003C00069102
:10F5A0000390039829040204000C03900498090CAA
:10F5B0002D0C4843154300212200FFF75BFEC719BD
:10F5C00071410E001034402CEBDB029A3800FFF73B
:10F5D00051FE009A019B801800900298594110300A
:10F5E000402801910290CADB00980BB0F0BD3A2888
:10F5F00000D23038202302009A43412A01D3100060
:10F600003738884201D30020C043704710B5064CFC
:10F61000002305E022000221491C9142FCDB5B1C17
:10F620008342F7DB10BD0000BC0C0000002104E0A9
:10F630000222521C0A2AFCDB491C8142F8DB70477B
:10F6400070B5054DAC6802F0DFFC200401D507F071
:10F6500077FAAC6070BD00004000800070B5194EB4
:10F66000B56802F0D1FC81200004016B0904C90FC8
:10F6700004D0016B1022914311430163A80603D506
:10F68000202004430CF07EFAE80304D50120000496
:10F6900004430CF06FF9A80504D50120400204438F
:10F6A00004F0B2FAE80404D501200003044307F093
:10F6B0000BF9E80504D5FF200130044300F0C0FD3C
:10F6C000B46070BD40008000044A03485178405C3B
:10F6D000491C51707047000080344000CC0C400041
:10F6E000144810B5006800681349884203D013A07D
:10F6F0000CF0EAFAFBE71D48006800681C498842E4
:10F7000003D01CA00CF0E0FAFBE726480068006874
:10F710002549884203D025A00CF0D6FAFBE72F48F4
:10F72000006800682E49884203D02EA00CF0CCFA65
:10F73000FBE710BD64E20100AAAAAAAA53746163A0
:10F740006B5F496E746567726974795F436865635E
:10F750006B20535441434B5F424153455F554E55D7
:10F76000534544206661696C210D0A0074E2010072
:10F77000BBBBBBBB537461636B5F496E74656772DF
:10F780006974795F436865636B20535441434B5FF1
:10F79000424153455F535643206661696C210D0A0F
:10F7A000000000007CE20100DDDDDDDD53746163FB
:10F7B0006B5F496E746567726974795F43686563EE
:10F7C0006B20535441434B5F424153455F4649517F
:10F7D000206661696C210D0A000000006CE20100E6
:10F7E000CCCCCCCC537461636B5F496E746567722B
:10F7F0006974795F436865636B20535441434B5F81
:10F80000424153455F495251206661696C210D0A9E
:10F81000000000000FB41CB502000020002907AC56
:10F820000BD0491E01910092064B069821006A46B2
:10F8300000F004F9009A002111701CBC08BC04B04F
:10F84000184700007D0102000FB410B5074B039864
:10F8500004A902AA00F0F2F80400002002A900F0B6
:10F8600098FC200010BC08BC04B0184793010200AB
:10F870007CB51C0015000200002000290BD0491E99
:10F8800000920191044B210028006A4600F0D6F84E
:10F89000009A002111707CBD7D01020037B508007F
:10F8A0001400064B21006A4600F0C8F8040000204E
:10F8B000694600F06EFC20003EBD0000930102008E
:10F8C00000487047200D4000F0B51FB486B00021FD
:10F8D0000998089A030D024314D05148514A181848
:10F8E000504305141198012810981AD0281A401C6A
:10F8F00000264D4F4D49002800960191049012DAE0
:10F90000444211E011980124012849A301D1109823
:10F91000C1430698119A84600360C26041600BB0D5
:10F92000F0BD4042E4E70400210500203F4A001CEE
:10F9300051410391029012E0E00707D0019900982D
:10F9400032003B00FFF760FB0191009032003B006A
:10F9500010001900FFF758FB06000F006410002C80
:10F96000EAD10498039B0028029A0999089806DABC
:10F97000FFF74AFB019B009AFFF746FB05E0FFF704
:10F98000ABFB019B009AFFF7A7FB2A4B04000E007C
:10F990000022FFF769FD03D80020C043010007E003
:10F9A000254B002220003100FFF77CFAFFF73CFDD9
:10F9B000102409E0002C0ADB0A220023FFF77CF95F
:10F9C000079B30321A55641E02000A43F2D1079B8E
:10F9D0001122641C121B1C19119B012B03D0012343
:10F9E00008430ED10AE0084304D0112010900020F3
:10F9F000119077E71098151A6D1E0BE0109882424F
:10FA000002DD00236D1C03E0824201DA00236D1E3B
:10FA1000002BEED0069811998260C16030C07EE75D
:10FA200001FCFFFF104D0000000014400000F03FFB
:10FA3000300000000000F0430000E03FFFB597B049
:10FA4000060000251DE2252877D10024F84927006B
:10FA5000049400E00443761C32780120203A904060
:10FA60000842F7D130782A280ED0022230780100DF
:10FA70003039092916D804990A23594314433039D7
:10FA80004018761C0490F1E7189802C804910029E8
:10FA9000189004DA012040030443484204900220F5
:10FAA0000443761C30782E2814D104200443707847
:10FAB000761C2A2809D11898761C80C8189009E06D
:10FAC0000A214F43303FC719761C30780100303986
:10FAD0000929F5D930786C2810D006DC4C281AD0CA
:10FAE00068280ED06A2817D104E0742813D07A2829
:10FAF00012D110E00120400504430CE0012109056A
:10FB000001E0032109050C437178814203D10120F2
:10FB100000052418761C761C3078119066280BD0CE
:10FB200013DC58287ED009DC00287CD04528F6D08C
:10FB30004628F4D047281AD1AAE118E0632835D026
:10FB4000642871D0652812D1A2E170286DD008DC3C
:10FB50006728F1D069287CD06E280DD06F2806D197
:10FB6000BDE073282ED0752872D078285AD01A9A02
:10FB7000199990476D1C83E16002400F022809D05B
:10FB800003280DD00428189801680DD00D60001DC1
:10FB9000189075E11898EA1701680D604A60F6E759
:10FBA000189801680D80F2E70D70F0E718986A4622
:10FBB0000178001D117218900020507202A8009068
:10FBC000012005E0189802C818900020C043009159
:10FBD00061070ED5002101E00199491CB94201914C
:10FBE00013DA8142F8DB019A0099895C0029F3D18C
:10FBF0000BE0002101E00199491C81420191FADBEF
:10FC0000019A0099895C0029F5D1019904981A9B01
:10FC1000471A199A2100380000F09AFA0199401900
:10FC200045180BE051E030E113E050E000980099F6
:10FC30000078491C1A9A0091199990470198401E22
:10FC40000190401CF2D121001A9B199A380014E14E
:10FC500039E00A200021009060020191410F022941
:10FC600007D0189A01CA1892C2170329944608D0DF
:10FC70000BE01898C01DC108C90005C91891944629
:10FC800009E000040014C2179446042903D10006B9
:10FC90000016C1178C4600229445614606DA0A0018
:10FCA0000021404291418C462D2102E0210504D5DE
:10FCB0002B216A461173012103E0E10701D02021C5
:10FCC000F7E7029157E00A200AE0102008E0102030
:10FCD00000900021042004430827019103E008203C
:10FCE0000021019100906002410F022907D0189A6B
:10FCF00001CA189200220329944608D009E01898F6
:10FD0000C01DC108C90005C91891944605E000044A
:10FD1000000C042901D10006000E002102912107E8
:10FD200029D51199702906D0009A019B10214A40CB
:10FD30001A4305D00EE040216A461173012108E004
:10FD40006146014306D030216A46117311995173FF
:10FD500002210291009A019B08214A401A430AD1CC
:10FD60006146014301D1610705D530216A4611730F
:10FD700001217F1E02911199582904D02DA10E91C5
:10FD80000DA90D910DE030A1F9E7019B009A6146A4
:10FD9000FEF792FF0E9B8C469B5C0D9A521E0D92B5
:10FDA000137061460143F0D10D9805A9081A20305F
:10FDB0000190600703D501200004844300E001277F
:10FDC0000198874201DD381A00E000200199009077
:10FDD0004118029809180498401A0490E00306D4C8
:10FDE0001A9B199A0498210000F0B2F945190027CE
:10FDF00006E01A9A03A8C05D199990476D1C7F1CF4
:10FE000002988742F5DBE0030CD51A9B199A0498F7
:10FE1000210000F09DF9451904E01A9A1999302043
:10FE200090476D1C0099481E00290090F5DC1EE0EB
:10FE300009280100303132333435363738396162C0
:10FE40006364656600000000303132333435363784
:10FE50003839414243444546000000000D980D9951
:10FE60000078491C1A9A0D91199990476D1C0199B7
:10FE7000481E00290190F1DC4DE100F059F94519C7
:10FE8000761C3078002800D0DDE528001BB0F0BDDE
:10FE9000600700D406271898C01DC108C90048682B
:10FEA0000A680831C30FDB071891190001D09CA123
:10FEB00008E0210501D59BA104E0E10701D09AA14A
:10FEC00000E09AA1430011985B08652810910CD0BE
:10FED00006DC452809D046281DD0472841D141E0FD
:10FEE000662818D067283CD13CE00021112F01DBA7
:10FEF000112000E0781C0191009008A911A8FFF7DB
:10FF0000E3FC139905910021119A7F1C1592129818
:10FF10000197009150E00120C0070390012001905B
:10FF200008A911A80097FFF7CFFC139A149905921E
:10FF30000022119B00921298059A159300290192B4
:10FF400001D0100002E0791C40180190381A01D548
:10FF5000019804E04042401E0090781C0190C01BB4
:10FF6000029043E0012F00DA01270021112F01DD6B
:10FF7000112000E038000191009008A911A8FFF7B6
:10FF8000A3FC13990591119A0021129815920091E2
:10FF9000210701970CD40599B94201DB019900E0D2
:10FFA0000191012904DD159A491E515C302906D0C2
:10FFB000B84201DA011D05DA0121029115E001992B
:10FFC000491EEDE7002805DC0099411800910199D0
:10FFD000091A03E0019A411C914200DD0191009948
:10FFE000401A401C02900120C0070390200706D44D
:10FFF00002990198814202DB0020C0430290002058
:020000040002F8
:100000006946C8770398012107AF0337C9078842BB
:1000100024D0022011902B201290039800280CDA93
:10002000404203902D20129007E003980A21F7F731
:10003000D9FE30317F1E039039701199481E002976
:100040001190F2DC03980028EFD11298791E087005
:100050003078202108404530BF1E387006A8C01BEC
:10006000C01D039010980078002800D0012001994D
:1000700041180298C0170918039809180498401AE3
:10008000401E0490E00306D41A9B199A049821009C
:1000900000F05EF8451910980078002803D01A9AED
:1000A000199990476D1CE00324D51A9B199A04985E
:1000B000210000F04DF845191CE00098002807DBEE
:1000C00000990598884203DD1598405C199901E074
:1000D000199930201A9A904700986D1C401C009086
:1000E0000298401E0028029004D11A9A19992E20D5
:1000F00090476D1C0199481E00290190DDDC05E048
:1001000038781A9A19997F1C90476D1C0399481EDC
:1001100000290390F4DC1A9B199A04982100ACE69C
:100120002D0000002B000000200000000000000057
:10013000F8B504001E0017000025880404D405E06B
:1001400039002020B0476D1C641EF9D52800F8BD89
:10015000FFB581B004001E000025C80301D530277B
:1001600000E02027880404D505E003993800B04753
:100170006D1C641EF9D5280005B0F0BD4A68002A40
:1001800006D00A68531C0B6010704868401E486017
:1001900070470A68531C0B6010707047F8B5104E1A
:1001A000104C002575802068052108432060FF273A
:1001B0002D376D1C2D042D0CBD4205D80A20FFF7EC
:1001C00035FA70880028F4D07088012801D1606861
:1001D00030802068C008C00020603088F8BD000072
:1001E000C80C40000067800070B504000D000120BD
:1001F000C00581684908490081600A2181602000AA
:10020000303000060222000E110003F0A3FCE000D3
:1002100028438021084307490860074A10430860C3
:1002200008600A68C81302430A6004490A68024366
:100230000A6070BD00678000000612004000800068
:1002400004480168C213114301600349012048803A
:100250007047000000678000C80C40008200094819
:10026000094B80589A58120383188B4207D80123F0
:100270001B03D2188018884201D901207047002042
:10028000704700005C0C4000DC27400070B5124A4B
:100290000C060125240E042603001070F7F738EE33
:1002A000071505070705050B1500557000E056708A
:1002B0009570D47009E002205070080E9670D070CE
:1002C000080C1071080A5071947191780248C91C89
:1002D00000F034FF70BD0000270E40001CB50B4835
:1002E000C078002806D00721002004F0E9F8892012
:1002F00007A101E08C200BA101910090104B04207C
:1003000010A220A101F0DEFF1CBD0000300940005A
:10031000646973636F6E6E5F616C61726D2073747C
:1003200061727400646973636F6E6E5F616C617299
:100330006D206973206E6F7420656E61626C65005C
:1003400060BF02002E2E5C2E2E5C2E2E5C74757902
:10035000615F626C655F73646B5F64656D6F5C7336
:1003600072635C6170705C6170705F6C6F636B5C1A
:100370006C6F636B5F64705F7061727365722E6324
:10038000000000004E4F5F54414700001CB50C4870
:100390000178002906D08178012004F091F87620B8
:1003A00008A103E004F012F97C200BA10191009058
:1003B0000E4B04200EA21EA101F084FF1CBD000004
:1003C0003009400073746172742066696E64206441
:1003D000657669636500000073746F702066696EEE
:1003E0006420646576696365000000004BBF02000D
:1003F0002E2E5C2E2E5C2E2E5C747579615F626CE5
:10040000655F73646B5F64656D6F5C7372635C6181
:1004100070705C6170705F6C6F636B5C6C6F636B52
:100420005F64705F7061727365722E63000000001C
:100430004E4F5F544147000010B50B2008F0DCFC24
:1004400010BD704710B50D2008F0D6FC10BD10B5DA
:1004500007F02CFD10BD10B503F07AFF00F056FF39
:1004600010BD000010B50A480A2305220921E2F751
:1004700071FA1B2101700021452241704280052242
:1004800082800122C1804272E2F77DFA10BD000035
:100490001B0D000010B5034903A00BF0ABFA0020C0
:1004A00010BD0000A0E7020025730D0A0000000047
:1004B00070B506000D00452005F0C6FF0100084894
:1004C00082230522E2F746FA040045702A00310033
:1004D000801CF7F7C3FC2000E2F755FA70BD00005E
:1004E0000145000010B50C2008F086FC10BD10B5C9
:1004F00000F07CF810BD00007CB50520E2F7B9FBE8
:10050000032802D0A7201CA105E0224CA0780028D7
:100510000AD0A32020A101910090254B254A042058
:1005200025A101F0CFFE7CBD264D254A00202900E3
:10053000FEF75DFC224A002008322900FEF757FC36
:1005400007F07AF8204921482322F7F787FC204951
:1005500020481022F7F782FC1E491B4823220D3940
:10056000F7F77CFC07F07AF8072004F0E7FA01209F
:10057000A070A02018A1CEE7646576696365206944
:1005800073206E6F74206164766572746973696E2E
:1005900067000000340940006170705F6962656146
:1005A000636F6E2069732072756E6E696E670000EE
:1005B000F3C00200D4EA02004E4F5F5441470000EE
:1005C000B20A400000407F40490A400078204000C5
:1005D0008B1940009C0A40006170705F6962656120
:1005E000636F6E5F73746172740000007CB51A4CA7
:1005F000A07800282CD00520E2F73BFB03280AD086
:10060000C32016A1019100901B4B1C4A04201CA181
:1006100001F058FE7CBD1D4D1B4A00202900FEF74D
:10062000E6FB194A002008322900FEF7E0FB07F03C
:1006300003F8174917482322F7F710FC07F00EF8C4
:10064000072004F089FA0020A070C02012A1D9E789
:10065000C72016A1D6E7000034094000646576691A
:100660006365206973206E6F7420616476657274AF
:100670006973696E6700000005C10200D4EA0200D8
:100680004E4F5F5441470000B20A400000F48F40D3
:1006900078204000490A40006170705F69626561BE
:1006A000636F6E5F73746F70000000006170705F45
:1006B00069626561636F6E206973206E6F7420726A
:1006C000756E6E696E670000F7B55C4E84B0317868
:1006D00004270025032903D0FF20773058A106E026
:1006E00004000078002817D0FF2086305FA1019118
:1006F00000906A4B6A4A04206AA101F0E3FD684653
:10070000029547720698022202A900F0C3FC00F08D
:10071000DFF9012007B0F0BD0221601C07F066FF81
:100720000221E01C07F062FF0221601D07F05EFF5E
:100730000020694603900873A0786178651C000268
:1007400008433E494968491C884201D0012015E010
:100750002079E278E61C010205981143C01F81420E
:1007600001D002200AE00022E01D07F003FF6979B2
:100770002A7909021143884203D00320694648734D
:1007800042E0002069464873707831782B4D0202B0
:10079000A86811230A439B03E11DC01807F060F904
:1007A0007078317800020843A9684018A860019069
:1007B00000903E48FEF7FAFA0100009881420ED9F7
:1007C0006A68FF20AA303AA16F4607C7334B344A04
:1007D000042034A101F076FD0320287007E0080012
:1007E0000199884201D12F7001E06846477368681B
:1007F000401C686070783278010211430F4AE01D96
:100800000C3207F0D5FEE8600698022203A900F03A
:1008100041FC6846407B00280DD0FF22BD3228A154
:100820000092019102901D4B1D4A04201DA101F070
:1008300049FD00F04DF900206CE70000B0094000D0
:100840004572726F723A20545559415F424C455F70
:100850004F54415F444154412D20735F6F74615F79
:100860007374617465206572726F72004572726F85
:10087000723A20545559415F424C455F4F54415F95
:10088000444154412D206F74615F646174612D3E59
:1008900074797065206572726F72000024C2020064
:1008A00064EB02004E4F5F544147000014134000B8
:1008B000735F706B675F69643A2025640000000015
:1008C0004572726F723A20545559415F424C455FF0
:1008D0004F54415F444154412D206572726F7269DB
:1008E000643A202564000000034810B50078002811
:1008F00001D000F0EDF810BDB0094000F7B5464C4E
:1009000086B0227803260025042A03D0FF20CC30AD
:1009100042A107E0012902D10078002817D0FF206A
:10092000DA3049A101910090504B514A042051A165
:1009300001F0C8FC6846029546720898022202A996
:1009400000F0A8FB00F0C4F8012009B0F0BD684633
:10095000039505734948FEF729FAA668B04201D00D
:1009600001200AE04548001DFEF720FA070030008C
:1009700000F062FA874203D002206946487330E0F3
:100980003F48022204A907F062F86846008AFF2265
:10099000F73280003BA1009201910290334B344A20
:1009A000042034A101F08EFC6846008A0121C903AD
:1009B000884208D908F017FE11202021800307F093
:1009C0003DF808F014FE6846457301206070354814
:1009D00031A101910090254B254A042025A101F069
:1009E00071FC0898022203A900F054FB00F070F893
:1009F0006846407B00280DD04122D2002AA10092F7
:100A000001910290194B1A4A04201AA101F05AFCD4
:100A100000F05EF8002098E7B00940004572726F60
:100A2000723A20545559415F424C455F4F54415FE3
:100A3000454E442D20735F6F74615F7374617465FC
:100A4000206572726F7200004572726F723A2054A4
:100A50005559415F424C455F4F54415F454E442DCF
:100A60002074797065206572726F720039C202005D
:100A700064EB02004E4F5F544147000014134000E6
:100A800006400400696D6167655F6C656E3A2025FC
:100A900064627974650000006F746120737563632C
:100AA00065737300010200004572726F723A205440
:100AB0005559415F424C455F4F54415F454E442D6F
:100AC000206572726F7269643A202564000000002C
:100AD0007D2110B5064B0748002209010AF0C0FD30
:100AE000044C103C20690AF0C0FD0020207010BDAD
:100AF00083670200C0094000F7B5504D8AB02978DD
:100B0000012903D0FF2001304DA106E00400007848
:100B100000280FD0FF200B3056A101910090634BAD
:100B2000634A042063A101F0CDFBFFF7D1FF012050
:100B30000DB0F0BD200009300421019007F056FDF2
:100B400020001D3004210600009007F04FFD20001A
:100B500021300421070007F049FD3000FEF726F997
:100B60005649FEF73BF93800FEF720F95349091DB5
:100B7000FEF734F95148210010220D310830F7F703
:100B80006DF91C2103A8FEF7CFF80026684606730E
:100B90000822601C4AA1F7F786F9002801D001203D
:100BA00010E00198FEF702F90224082802D86846EE
:100BB00044730DE00098FEF7F9F8012149048842DA
:100BC00003D903206946487302E0684646732C70D7
:100BD0003A481830FEF7EAF803ACA11CFEF7FEF81D
:100BE0000421A01C07F002FD34481C30FEF7DEF89B
:100BF000A11DFEF7F3F80421A01D07F0F7FC05A8DE
:100C000010210230FEF790F80C981A2203A900F088
:100C100041FA6846407B00280DD0FF2233322BA1D9
:100C2000009201910290214B214A042021A101F060
:100C300049FBFFF74DFF00207AE70000B0094000B4
:100C40004572726F723A20545559415F424C455F6C
:100C50004F54415F46494C455F494E464F2D2073E6
:100C60005F6F74615F7374617465206572726F7217
:100C7000000000004572726F723A20545559415F6E
:100C8000424C455F4F54415F46494C455F494E4693
:100C90004F2D2066696C655F696E666F2D3E7479B5
:100CA0007065206572726F7200000000EEC1020074
:100CB00064EB02004E4F5F544147000014134000A4
:100CC000616D6673716F7873000000004572726F1A
:100CD000723A20545559415F424C455F4F54415F31
:100CE00046494C455F494E464F2D206572726F72E2
:100CF00069643A2025640000F7B52B4C86B0217852
:100D0000022903D0FF20423028A106E00500007828
:100D100000280FD0FF204C3032A101910090414BB0
:100D2000414A042041A101F0CDFAFFF7D1FE012094
:100D300009B0F0BD0421681C07F058FC0026684685
:100D4000009601960670681CFEF730F800286F4682
:100D50001DD03849102202A8F7F7A5F8002810D1B5
:100D6000A06800F069F8E16888420AD1681CFEF7C3
:100D70001DF80100A068814203D3791CFEF72EF80C
:100D800005E0791C0020FEF729F8A660E660042142
:100D9000781C07F02BFC08980522694600F07AF9C8
:100DA000032020700020C3E7B00940004572726F35
:100DB000723A20545559415F424C455F4F54415F50
:100DC00046494C455F4F46465345545F5245512D69
:100DD00020735F6F74615F737461746520657272F4
:100DE0006F7200004572726F723A20545559415F1C
:100DF000424C455F4F54415F46494C455F4F464624
:100E00005345545F5245512D2066696C655F6F668E
:100E1000667365742D3E74797065206572726F72A9
:100E20000000000008C2020064EB02004E4F5F5455
:100E3000414700001C134000F8B5002826D00021CF
:100E400011250091AD03C021F6F7CCFF06000F007D
:100E500000240CE00F49C022280009F0FDFF0D48D6
:100E6000C0216A4607F0A4FB641CC0350090B44260
:100E7000F0D3002F0BD00749C022280009F0ECFF67
:100E8000044839006A4607F093FB0090F8BD0098CB
:100E9000F8BD00005412400010B50400007886B080
:100EA00069460873207803280FD041221AA10092C6
:100EB000019102901D4B1E4A04201EA101F002FA6E
:100EC000628861681DA007F069F820780300F7F7D1
:100ED00020E805040B11171D09006188606803AA4A
:100EE00000F036F806B010BD6188606803AAFFF70D
:100EF00003FEF7E76188606803AAFFF7FDFEF1E7EC
:100F00006188606803AAFFF7DFFBEBE76188606830
:100F100003AAFFF7F3FCE5E76F74615F636D645F3D
:100F2000747970653A20256400000000CAC102008F
:100F300064EB02004E4F5F54414700006F74615FE5
:100F4000636D645F6461746100000000002070479D
:100F5000F0B5344D17002A7885B000240126002A08
:100F600002D0CB2030A106E0012902D10078002870
:100F700018D0D92037A101910090404B404A04205D
:100F800040A101F09FF9684602940394049406720C
:100F90000922380002A900F07DF8FFF799FD012031
:100FA00005B0F0BD0020C0436860AC60EC606C70C0
:100FB00036481821FDF7B8FE344818211830FDF7DF
:100FC000B3FE334B00221E210F2006F057FD08F020
:100FD0000AFB11202021800306F030FD08F007FBFA
:100FE0006846009401940294032104704170847057
:100FF000040008206944FDF7F1FE0421E01C07F01D
:10100000F5FAC0216846C171002101720221E01D7C
:1010100007F0ECFA09223800694600F03BF82E7020
:101020000020BDE7B00940004572726F723A20544B
:101030005559415F424C455F4F54415F5245512DD8
:1010400020735F6F74615F73746174652065727281
:101050006F7200004572726F723A20545559415FA9
:10106000424C455F4F54415F5245512D2070617293
:10107000616D206572726F7200000000DAC10200BB
:1010800064EB02004E4F5F544147000014134000D0
:101090008813000010B54160428009F0E7FE10BDE2
:1010A00010B508F037FF10BD10B507F055FA10BDA8
:1010B00010B506F0E3FC002010BD10B508F09BFA57
:1010C00010BD00001CB5FF201C3006A1019100904E
:1010D000084B042008A217A101F0F4F808F0A0FBC7
:1010E00000201CBD64657669636520726573657454
:1010F000000000004CC102002E2E5C2E2E5C2E2E15
:101100005C747579615F626C655F73646B5F646565
:101110006D6F5C7372635C6170705C6170705F6353
:101120006F6D6D6F6E5C6170705F706F72742E6347
:10113000000000004E4F5F544147000070B50C00A6
:10114000050008F025F92204120C032805D0290017
:1011500006A006F023FF012070BD290007A006F0BD
:101160001DFF2100280008F082FB70BD64705F72D3
:1011700073705F756E636F6E6E00000064705F72F7
:1011800073700000FEB516000F00040008F000F9AF
:1011900035042D0C032814A010D0D5210091019006
:1011A000154B042015A224A1029401F08BF82A000B
:1011B000390023A006F0F2FE0120FEBDD1210091EE
:1011C00001900D4B04200DA21BA1029401F07AF8AE
:1011D0002A00390020A006F0E1FE3200390020008C
:1011E00008F082FBFEBD000074696D657374616D6B
:1011F000703A2025640000002AC102002E2E5C2EC9
:101200002E5C2E2E5C747579615F626C655F736411
:101210006B5F64656D6F5C7372635C6170705C6161
:1012200070705F636F6D6D6F6E5C6170705F706F1B
:1012300072742E63000000004E4F5F54414700005F
:1012400064705F7273705F74696D657374616D70E3
:101250005F756E636F6E6E0064705F7273705F7443
:10126000696D657374616D700000000010B501F068
:1012700079FB10BD10B5002802D0062106F024FC31
:1012800010BD10B508F084F810BD10B505F0CCFF06
:1012900010BD10B506F0DAFB002005F00DFF0020B0
:1012A00010BD10B506F02AF810BD0D2010B50221B2
:1012B000C00306F0B1F9002010BD10B507F096F993
:1012C00010BD10B506F08AFC10BD10B507F0BEF9D0
:1012D0000006000E10BD10B507F01DFA0006000E46
:1012E00010BD10B507F022F810BD10B507F076F864
:1012F00010BD10B507F0E8F810BD10B508F008F8FB
:1013000010BD10B507F020F9002010BD10B5042065
:1013100003F014FC10BD10B5092007F06DFD10BDE1
:1013200010B500F001F810BD0448012141700078AB
:10133000002801D1024801707047000038094000C0
:101340003C0A4000F8B50E4C0500607816000F000E
:10135000002804D1002D02D1280000F013F82078D5
:1013600000280BD0002D09D00220205E854205D038
:10137000658032003900280000F004F8F8BD000054
:101380003809400030B5324D0400287899B0002863
:1013900008D02300F6F7BCED09081D23262B2F3BB0
:1013A00042522900002C20D1C2202AA10191009094
:1013B000304B042030A23FA100F084FF0020C04346
:1013C0006880012028703DA00068012202A90290D7
:1013D00030E018223AA16846F6F740FD11E03EA140
:1013E0000FC924E0200000F007FA19B030BD20003A
:1013F00000F0B2F8F9E7052003F0A0FB36A00FC813
:1014000015E06846FDF7BCFC0204120C1DE036A393
:1014100036A23FA16846FEF717FA14E00A0013232C
:10142000083201210020FFF73CFF2BA30FCB6D46B4
:101430000FC5E6E7200000F0BDF9D6E732223FA154
:101440006846FEF701FA0206120E6946F2E700004E
:10145000380940006170702074657374206D6F648A
:101460006520656E7465722073756363657373219F
:101470000000000016C102002E2E5C2E2E5C2E2EC7
:101480005C747579615F626C655F73646B5F6465E2
:101490006D6F5C7372635C6170705C6170705F63D0
:1014A0006F6D6D6F6E5C6170705F746573742E63C9
:1014B000000000004E4F5F54414700000100000053
:1014C0007B22726574223A747275652C2268696495
:1014D000223A22227D0000007B22726574223A7437
:1014E0007275657D00000000302E380074757961DA
:1014F0005F626C655F616E74696C6F73745F636F5C
:101500006D6D6F6E5F626B333433317100000000BC
:101510007B22726574223A747275652C2266697238
:101520006D4E616D65223A222573222C2266697206
:101530006D566572223A222573227D007B227265E8
:1015400074223A747275652C2272737369223A227E
:101550002564227D00000000F7B5704804226DA1CB
:10156000F6F77CFC6D4A042303210020FFF799FE67
:101570006A4C0423221D03210020FFF786FE04226B
:10158000211D2000F6F78FFC00280AD00D22200034
:1015900063A1F6F763FC0D226049009800F00AF998
:1015A000FEBD7B2020702225A01C032260A1657057
:1015B000F6F754FC3A266571E01D042255A1A67188
:1015C000F6F74CFC55482C27E7720D30062259A13E
:1015D0002573F6F743FC5148E574267557491630D4
:1015E00020226575F6F73AFC36202554372027541B
:1015F0003820255449480322393051A1F6F72EFCF2
:101600003C2025543D202654444A3E2025543F3258
:10161000132301210020FFF738FE522025545320C8
:101620002754542025543D480422553045A1F6F74F
:1016300015FC592025545A2026545B202554374840
:101640003E495C3010221639F6F708FC6C20255410
:101650006D2027546E20255420006F3003223BA1BB
:10166000F6F7FCFB722025547320265474202200C8
:10167000255475320C2302210020FFF706FE81203D
:1016800025548220275483202554200084300822AA
:101690002FA1F6F7E3FB8C2025548D2026548E20B5
:1016A000255420008F3020222CA1F6F7D7FBAF2045
:1016B0002554B0202754B12025542000B2300722F1
:1016C0002FA1F6F7CBFBB9202554BA202654BB2016
:1016D00025542000BC3003222BA1F6F7BFFBBF200E
:1016E0002554C0202754C12025542000C23009228F
:1016F00026A1F6F7B3FBCB202554CC20265420009E
:10170000CD30052224A1F6F7A9FBD2207D21D322DA
:10171000215441E7747275650000000054104000C8
:101720007B22726574223A66616C73657D000000ED
:101730007265740061757A4B65790000A1194000EB
:101740006869640075756964000000006D6163007C
:101750006669726D4E616D65000000007475796197
:101760005F626C655F616E74696C6F73745F636FE9
:101770006D6D6F6E5F626B3334333171000000004A
:101780006669726D56657200302E380070726F6433
:101790005F7465737400000066616C73650000001F
:1017A00010B50A2007F028FB10BD10B5FFF78AFC22
:1017B00010BD000070B50F4C150066222270AA22E1
:1017C00062700022A270E070280A20712A00A01D19
:1017D0006571F6F743FBAD1D2D042D0C290020008B
:1017E000FFF762FC60556D1C2904090C2000FFF70F
:1017F00084FD70BD5411400010B50C0086B002F09D
:1018000099FD21001D4820220B31F6F727FB1B48CC
:101810002100102235311638F6F720FB09F0C2FE00
:1018200016481621EF30FDF77FFA09F0E9FE200097
:101830004E300C2104006A46FFF74DFD00280ED003
:101840000FA00FC802AC0FC402A8FDF799FA02045A
:10185000120C032002A9FFF7ADFF06B010BD6846C9
:10186000FFF72FFD0C23220002210020FFF719FDB6
:1018700007A00FC802AC0FC4E6E70000A1194000A2
:101880007B22726574223A66616C73657D0000008C
:101890007B22726574223A747275657D00000000C7
:1018A00010B5FF2104009131F6F79CFA002909D008
:1018B00064212000F6F796FA002901D0A00701D094
:1018C000002010BD012010BD10B5002808D00C2844
:1018D00006D8022804D0064908182038C07F10BD59
:1018E0000800FFF7DDFF1C300006000E10BD0000F1
:1018F0008EC2020010B5074C0020E178012907D004
:101900008800054908588047E078401CE0700120B5
:1019100010BD0000043E400000E70200084810B57A
:10192000807802230522010206480A31E1F712F805
:101930000121017013214170E1F725F810BD00006D
:10194000043E4000040E000010B5034C6279A11D56
:10195000F6F784FA607910BD043E4000F8B5102017
:101960006946087012482821FDF7DEF91149052063
:10197000E1F70EF900210520E1F746F90C4AA12014
:10198000183216006946E0F785FC00280FD0084D94
:101990000024F6F751FA2919641C2406240E102C91
:1019A0000876F6D332001021A120E0F7C2FCF8BD82
:1019B000043E400004E70200FEB5040A00220C2C9D
:1019C0001FD00E2C1DD0452C1BD10F4C0F4E227951
:1019D00015E02768D500083D7D19A0CD00956D461E
:1019E00001972D88854201D0B54205D1019C052281
:1019F000A0470206120E04E0521E1206120E002A22
:101A0000E7D11000FEBD000098E70200FFFF0000D4
:101A10007CB50520E1F72DF9022859D12D48522334
:101A200005220921E0F796FF04002B4D002060708D
:101A3000A87C20722800FDF7C3F90322FDF7C4FB40
:101A4000264E00223300FDF747FBFDF7F5FBA08093
:101A500028000830FDF7B4F90322FDF7B5FB00229A
:101A60003300FDF739FBFDF7E7FBE080287C2070B1
:101A7000012060721A48FDF799F9E0721848FDF7E5
:101A800095F9174902002000091D0C30F6F7E6F918
:101A90001448FDF78BF92B2108551249020020004C
:101AA000091D2C30F6F7DAF92000E0F76CFFB320BF
:101AB0000DA101910090114B042011A213A100F07F
:101AC00001FC14480AF002FA03210520E1F79CF812
:101AD0007CBD00000D0D0000B20A40000000144063
:101AE000490A40006C0A400073746172742061649A
:101AF000766572746973696E6700000014E702000E
:101B00006170705C6170702E630000004E4F5F5416
:101B100041470000FF3F00001CB50520E1F7A9F890
:101B2000032819D10D48012305220921E0F712FFEE
:101B300002210170E0F727FFCE2009A1019100905A
:101B40000D4B04200DA210A100F0BCFB0AF0ACF973
:101B500002210520E1F758F81CBD0000030D00002C
:101B60006170706D2073746F70206164766572743B
:101B70006973696E670000002BE702006170705C9A
:101B80006170702E630000004E4F5F5441470000AB
:101B9000FFB507001D000E00052081B0E1F769F8D0
:101BA00003281DD11F2E1BD81F2D19D80D484123E6
:101BB00005220921E0F7CEFE04001020207021202C
:101BC0006670055532003900A01CF6F747F9200071
:101BD00003992A002230F6F741F92000E0F7D3FEFE
:101BE00005B0F0BD0E0D000010B504000C480E232A
:101BF0008078052201020B480A31E0F7ABFE09218B
:101C000001702188418061888180A188C180E1883C
:101C10000181054941818181E0F7B5FE10BD0000D9
:101C2000043E40000E0E0000FFFF000000B5084B10
:101C300087B0029303AB07C3502006A10191009027
:101C4000034B04200CA210A100F03CFB07B000BD28
:101C50003AE6020025732C636F6E646974696F6ED7
:101C60002025732C66696C652025732C6C696E6564
:101C7000203D2025640000006170705C6172636823
:101C80005F6D61696E2E63004E4F5F5441470000E7
:101C900000B587B0069303AB07C3074A552007A1D9
:101CA0001300029201910090042010A213A100F0F1
:101CB00009FB07B000BD000045E6020025732C704B
:101CC0006172616D30203D2025642C706172616D00
:101CD00031203D2025642C66696C65203D202573EC
:101CE0002C6C696E65203D20256400006170705C7D
:101CF000617263685F6D61696E2E63004E4F5F5461
:101D00004147000070B5040000680D00401C14D06D
:101D10000022DC21201D07F077FB2168814201D1E0
:101D2000012070BD00225021201D07F06DFB2168AD
:101D3000814202D101202870F2E7002070BD00002E
:101D4000F8B50A0601003248120E06F0B1FD304C1B
:101D500007000025143C00280BD0032F09D0656034
:101D60002560A068002802D008F09EF8A560012038
:101D7000F8BD2748274E807901281BD1A06800288C
:101D800002D008F091F8A560214801F0D5FE0121AC
:101D900089028842606030D800282ED00004000CF0
:101DA000256008F0E1FF0028A0602BD06168FCF7F7
:101DB000BBFFF561164801F0C3FEF1694018616888
:101DC00088421DD8A068002817D0114801F0B8FE3D
:101DD00000900F4801F0B2FE0100A068F26980187F
:101DE000009AF6F73BF80A4801F0AAFEF16940189C
:101DF000F061002F206007D004E06560256001E0FD
:101E000006F0A4FF0220F8BD0020F561F8BD000037
:101E1000341F4000000A400010B5062006F0ECFF19
:101E200010BD000010B50A4C02206178FEF72EFAB2
:101E3000A1780320FEF72AFA00210420FEF726FAF3
:101E4000E1780520FEF722FA05F0B2FC10BD000093
:101E50003009400030B504000120002307E0E55CB4
:101E6000954201D0002030BD5B1C1B041B0C8B4233
:101E7000F5D330BD024880688003C00F7047000072
:101E800000638000124AD06911680029FCDBC02180
:101E900001401023194303071B0F0B430121490283
:101EA00001400B430B4901400B43012189060840C7
:101EB0000343D361084809498068884201D1084832
:101EC00000E00848106010680028FCDB7047000044
:101ED0000020800000FCFF03BC0C400013311C00FC
:101EE00000D0073600D007371CB507F051FA052897
:101EF00001D004280BD15E2005A101910090114B67
:101F0000042011A21FA100F0DDF9FFF7C9F81CBDE4
:101F10006E7266733A20626C6520646973636F6EDB
:101F20006E6365742062656361757365206D6F6EA5
:101F300069746F722074696D65722074696D656F64
:101F400075742E0077BF02002E2E5C2E2E5C2E2E76
:101F50005C747579615F626C655F73646B5F646507
:101F60006D6F5C7372635C6170705C6170705F6CEC
:101F70006F636B5C6C6F636B5F74696D65722E630E
:101F8000000000004E4F5F544147000010B5042090
:101F900006F032FF10BD000010B5034B0022C8212F
:101FA000B420FFF785F810BD881300000120C1059B
:101FB00048607047104810B5012101700F48C26990
:101FC00090231A43C2610E4A0E4B5A62FF23F93323
:101FD00042041360C36902242343C361C3690B43F2
:101FE000C361C36908242343C361C3690424234331
:101FF000C361516010BD00008D0C400040008000A6
:102000000A3C2074001480000D4900B50A780020B5
:10201000012A14D100220A700A4A9021D16100E0FD
:10202000C0460100401C0006000E1E29F8D3FF2008
:10203000FA300121C9050860012006F0CDFB00BD82
:102040008D0C400040008000FFB581B001981F005A
:10205000002810D0039800280DD0002426000298F4
:10206000012F0AD0001B03280AD2300001F08EF89D
:10207000022005B0F0BD0120FBE7001B0428F4D3CB
:102080000C2008F071FE050018D00020286001988F
:10209000012F18D00019807808F066FE0028A8608B
:1020A00014D00199095D641C29710199095D641CB2
:1020B000012F69710199095D0ED013E0300001F024
:1020C00065F80520D5E70019C078E5E707F0ECFED4
:1020D000280007F0E9FEF1E70A02E9800199641C93
:1020E000095D5118E9800299EA88641C091B914234
:1020F00005D207F0D9FE280007F0D6FEB5E7019912
:102100000919F5F7ABFEE8882E602E000419029835
:102110008442A4D3039805600020AAE7FFB50020FD
:1021200085B0029003904F480E00007B00287DD0C0
:102130004C4940390878042878D30598491CFCF7A5
:10214000FEFD002872D000F065FA002581E0A81994
:10215000012464020490009501904948059B2100E8
:1021600041A2FDF757FBA04202D80404240C01E071
:102170000124640200272AE00899E819884207D25E
:10218000079940A20B5C082102A8FDF743FB04E07D
:1021900008223EA102A8FCF7E6FD394802AA01196F
:1021A000200000F049FB001904040121240C7807E9
:1021B0004907C84208D1324830A20119200000F076
:1021C0003BFB00190404240C7F1C3F043F0CB74266
:1021D000D2D32B482EA20119200000F02DFB0019AC
:1021E0000404240C00271BE00899E819884214D243
:1021F00007990B5C180020385F2800D32E23082194
:1022000024A202A8FDF706FB1D4802AA011920001E
:1022100000F012FB00190404240C7F1C3F043F0C47
:10222000B742E1D3601C0121490200E017E0884277
:1022300000D94C1E124818A20119200000F0FCFA27
:10224000001901040E48090C00F02EFA0498050448
:102250002D0C0898854200D279E700F0FFF909B00B
:10226000F0BD000030344000442F4845582025730D
:102270003A20253034582D253034583A20000000BB
:10228000F03140002530325820000000202020008E
:1022900020200000256300000A00000010B500F0B7
:1022A00001FA00280AD1012000F0C2F904480024F4
:1022B0008473C473052000F009FA200010BD0000EB
:1022C000303440000FB4F0B506008DB01398FCF721
:1022D00057FD00240700142107A805940694FCF775
:1022E00023FD052E08D99D48FF2203689C498E32A4
:1022F000002B9CA07ED09847A148007B00287AD074
:102300009F4940390878B04275D31398491CFCF7AF
:1023100016FD00286FD018A8039000F07BF901216A
:10232000300001F09BFB974D002808D08B49B0008E
:10233000091D0A582900200000F07EFA040002213D
:10234000300001F08BFB002819D0139A29192000C6
:1023500000F072FA0419102F0BD81020C11B202294
:1023600007A8FCF7D9FC2919200007AA00F064FA95
:1023700004192919200084A200F05EFA04191C2116
:10238000300001F06BFB002850D0291920007FA2FB
:1023900000F052FA04190421300001F05FFB00281C
:1023A00013D000F077F902002919200000F044FA58
:1023B00004191821300001F051FB002805D029191B
:1023C000200071A200F038FA04190821300001F051
:1023D00045FB002816D000F04FF902002919200013
:1023E00000F02AFA04191021300001F037FB002810
:1023F00008D001E03BE0ACE02919200062A200F027
:102400001BFA04191021300001F028FB002807D026
:1024100000F03AF902002919200000F00DFA041921
:10242000291920005AA200F007FA0419E02130000F
:1024300001F014FB002862D02919200055A200F0F9
:10244000FBF904192021300001F008FB002826D0F8
:10245000149A2919200000F0EFF9041940213000E6
:1024600001F0FCFA00280ED0291947A213E002ACB3
:1024700007C449A301930092394B00204FA25EA1EB
:10248000FFF720FFFEE78021300001F0E7FA002887
:1024900005D029195AA2200000F0CEF904194021D4
:1024A000300001F0DBFA002811D0159A291920001C
:1024B00000F0C2F904198021300001F0CFFA0028A1
:1024C00005D0291920004EA200F0B6F90419802188
:1024D000300001F0C3FA00280BD0169B052149A259
:1024E00005A8FDF797F92919200005AA00F0A4F91D
:1024F00004192919200044A200F09EF904190126AC
:102500007602039B179A311B2819FDF7B1F90021B8
:102510002418B44204D8002802DB601CB04200D961
:102520003A4C174820388078002807D0295514499C
:1025300014481E39FCF703FC002808D02919200094
:1025400033A200F079F901190E4800F0ADF800F05F
:1025500085F80DB0F0BC08BC04B01847700C400002
:10256000D7E502006C6576656C203C3D20454C4FFC
:10257000475F4C564C5F564552424F534500000052
:1025800030344000F0314000200000005B000000CB
:102590005D20000028000000282573292068617351
:1025A00020617373657274206661696C6564206173
:1025B000742025733A256C642E0000002E2E5C2EAC
:1025C0002E5C2E2E5C747579615F626C655F73643E
:1025D0006B5F64656D6F5C7372635C6370745C6584
:1025E0006173796C6F676765725C7372635C656C4D
:1025F0006F672E6300000000656C6F6700000000CD
:102600003A000000256C640029000000FF01000072
:102610000A00000070B5054C0125607B002803D03E
:1026200000F04CF8E57370BDA57370BD3034400008
:10263000094910B50028487308D00748C97B807B3A
:10264000002904D0002801D100F03CF810BD00287A
:10265000FCD000F033F810BD3034400070B5054CAC
:102660000025607B002803D000F02CF8E57370BDD6
:10267000A57370BD3034400000A070477069643AA3
:10268000313030380000000000A070477469643AAF
:102690003234000000A0704731323A33343A3536D4
:1026A0000000000000207047020010B501A009F0F2
:1026B000A1F910BD252E2A730000000010B505F009
:1026C000A1F910BD10B505F0A9F910BD10B50400B1
:1026D000052886B008D90C48FF2203680B49173239
:1026E000002B0BA004D098471048047006B010BD12
:1026F00002AC07C40EA301930092044B002015A264
:1027000023A1FFF7DFFDFEE7700C4000C3E50200E8
:102710006C6576656C203C3D20454C4F475F4C56C0
:102720004C5F564552424F5345000000F033400085
:102730002825732920686173206173736572742082
:102740006661696C65642061742025733A256C6448
:102750002E0000002E2E5C2E2E5C2E2E5C747579C1
:10276000615F626C655F73646B5F64656D6F5C7302
:1027700072635C6370745C656173796C6F676765C5
:10278000725C7372635C656C6F672E63000000009F
:10279000656C6F67000000000EB5084901200873E2
:1027A000CA2007A208A1029201910090104B0420B8
:1027B00010A21FA1FFF786FD0EBD000030344000BF
:1027C000322E312E30000000456173794C6F6767FF
:1027D00065722056257320697320696E697469617A
:1027E0006C697A6520737563636573732E000000EE
:1027F00083E502002E2E5C2E2E5C2E2E5C747579E5
:10280000615F626C655F73646B5F64656D6F5C7361
:1028100072635C6370745C656173796C6F67676524
:10282000725C7372635C656C6F672E6300000000FE
:10283000656C6F6700000000F0B50D000600140025
:102840001700002985B007D121480368002B06D066
:1028500020492C2220A09847002C10D017E01D49B9
:102860002C201EA31CA201930B0004900292039142
:102870000090002022A232A1FFF724FDFEE71448B9
:102880000368002B10D013492D222FA09847012157
:1028900049022078002817D03200761C8A4213D2D1
:1028A000641C28706D1CF4E70A492D200BA326A296
:1028B00001930B000490029203910090002010A25B
:1028C0001FA1FFF7FFFCFEE7E01B05B0F0BD000015
:1028D000700C40000FE60200647374002825732911
:1028E0002068617320617373657274206661696C1E
:1028F00065642061742025733A256C642E00000005
:102900002E2E5C2E2E5C2E2E5C747579615F626CAF
:10291000655F73646B5F64656D6F5C7372635C634A
:1029200070745C656173796C6F676765725C7372F4
:10293000635C656C6F675F7574696C732E63000010
:10294000656C6F670000000073726300002004492B
:1029500002007D23DB00401C04C19842FBDB704772
:102960000040810070B50D0004001E000221001D12
:10297000FEF7A3FCA07800281BD1E378F02B02D04F
:10298000F12B17D025E0A51D0221E01DFEF795FCD7
:10299000287803280DD1607921796B7800020843EB
:1029A000A978C01E02040802120C1843E91C01F0A9
:1029B00087FE70BD60792179ED1F00020843A842AF
:1029C00007D1401E0204A079120CE11D01F0CAFCDF
:1029D00070BD6079217902020A43A11D1800FEF73B
:1029E000B1FC0020308070BD006900224018FF302B
:1029F0000130C2727047006900224018FF30013078
:102A0000C272704770B5056904006868002801D07B
:102A1000DFF71DFF002020612800DFF718FF70BDE1
:102A20000020704770B515000E0002241000E0F77A
:102A300020F9002810D1452003F0D2FC0400012128
:102A40002800E0F7E1F83100200000F097F80021BD
:102A50002800E0F7D9F80024200070BD10B504006C
:102A6000452003F0BDFC0189052C03D208190004A0
:102A7000000C10BD052C08D1FF300130007BC007D1
:102A800003D0491D0804000C10BD002010BD70B516
:102A900004000D00452003F0A3FC02898021131DD2
:102AA0009C4202D8A11A29700021FF300130007B1E
:102AB0001A04120CC00707D0521C1004000C8442E8
:102AC00002D1052000212870080070BDFFB5FF2746
:102AD000050011371E000121380087B0DFF752FED4
:102AE00004003900FCF720F9109AE01DF930017B51
:102AF000527800231143017308981D4A01886846E3
:102B000001823F21017530001E210840A98A0093EF
:102B10000292019103901749062305AA04A8EEF733
:102B2000BCFF070007D0002C02D02000DFF78FFE8B
:102B300038000BB0F0BD68462C61008A0899088007
:102B40002081F00701D00120C003099908432080AB
:102B5000A88A002160804520E8820120FF34E881B6
:102B600005480B34AC606860A88AE0F74DF8DFE7F1
:102B700090E6020010190000F8E6020070B50D00A2
:102B8000002103F0C1FC6B780200C1200821000184
:102B90000833DFF7DFFE0400122020700420FFF767
:102BA0005DFFA0806878A91CE08020006A7808306A
:102BB000F5F754F92000DFF7E6FE70BD00487047D6
:102BC000C0E6020000207047080010B58031097887
:102BD00005F070FA002010BD0A4A030010B500206D
:102BE0000401A4189C4204D103019A1892680A6057
:102BF00010BD401C0006000E1428F1D30020C04375
:102C000010BD0000F80A400000B500F011FF184A9E
:102C1000906000F025F99168164A8B1A914222D0F3
:102C200008DC154A891817D0144A891810D00129D0
:102C300009D10DE009218902591A04D0104A8918D6
:102C400011D001290FD09C280CD09C21012007E035
:102C5000BC2807D0BC2109E0BC2803D0BC21F5E783
:102C600000F02CFA00BD9428FCD094210220F7E754
:102C7000BC0C40001340C800EDCEE3FF000E5AFF2D
:102C80000024E8FFF0B5080B0C050B000003012140
:102C9000090385B0451802900020274E0090AB2014
:102CA0001700240D307100F0C3FEB168884202D0D5
:102CB000FF2005B0F0BD002C10D0BC207071009A30
:102CC0000298210009F04EF8009A2100280009F02E
:102CD0007FF801200003001B3C1A01E01D003C00AE
:102CE0001549BC2027130026487107E0280000F092
:102CF00025F8012000032D18241A761CBE42F5DBAE
:102D0000002C13D00C49BC20012636034871371B18
:102D100028190022390009F05BF8AD1B22003900A8
:102D2000280009F01FF8280000F008F802480021E8
:102D3000017141710800BCE7BC0C400010B50400F3
:102D40000B480179AB2911D14079BC280ED100F094
:102D5000DBF8084908680028FCDB2D200006044346
:102D60000C6008680028FCDB00F09EF810BD000035
:102D7000BC0C40000020800000B500F059FE07495F
:102D8000886000F07FF806480078C00701D0032073
:102D900000E0012004F058F900BD0000BC0C400028
:102DA00038004000F8B58F18080A3C0A1E000002DF
:102DB0002402A04208D0651A2A00180000F00AF880
:102DC00021007A1A701900E0180000F003F80020C2
:102DD000F8BD0000F7B514000D000026002A8AB0E7
:102DE00039D01E4908680028FCDB601E0027400916
:102DF000401C089023E025202900000601431748C5
:102E0000016001680029FCDB002120356A46134877
:102E100083688800491C08291350F8D378012030B2
:102E2000A04203D20A988019202202E00A98A21B2D
:102E300080196946F5F712F8089820367F1CB842C9
:102E4000D9D806487D210903016000214A1E42604D
:102E5000491C0829FBD30DB0F0BD00000020800004
:102E6000064801680029FCDB05490160016800296A
:102E7000FCDB40690006000E704700000020800067
:102E800000D0072300B5FEF7FDFF0648C169702298
:102E90009143C161C16910221143C16101680029D8
:102EA000FCDB00BD00208000124800B5806812499C
:102EB000421A88421BD008DC1049401815D010492E
:102EC000401810D0012809D10DE009208002101A05
:102ED00004D00C4940180AD0012808D09C210120B8
:102EE00000F0ECF800BDBC2102E0BC21F7E7942122
:102EF0000220F5E7BC0C40001340C800EDCEE3FF14
:102F0000000E5AFF0024E8FF114800B580681149FF
:102F1000421A884217D008DC0F4940180ED00F49DA
:102F200040180ED0012809D10BE009208002101AA8
:102F300004D00B49401806D0012804D0802101207C
:102F400003E0084900E08021022000F0B7F800BD4E
:102F5000BC0C40001340C800EDCEE3FF000E5AFF4A
:102F60000024E8FF8C080000FFB516000B0081B0BC
:102F700000F05EFD164CA168884208D000F058FDB4
:102F8000010014A008F036FDFF2005B0F0BDA6201A
:102F90009F19190A3D0A207009022D02B320A94287
:102FA0000BD019006E1A60700498320000F01AF805
:102FB000049829007A1A801903E06070049832009E
:102FC000190000F00FF8002020706070DDE70000AD
:102FD000BC0C4000666C617368203D203078257819
:102FE0000D0A0000F7B5150000268AB0002A0891E6
:102FF0005DD0304C20680028FCDB2F48C221817056
:10300000FFF782FF681E00274009401C09903DE041
:1030100078012030A84203D20A98811920220AE0C0
:103020000020411E6A468300401C0828D150FAD374
:103030000A98AA1B81196846F4F710FF1E48D1238D
:10304000C37000202036694682008A586260401CA6
:103050000828F9D318480178A62912D14178B32954
:103060000FD121680029FCDB8078C22806D1D12B42
:1030700004D108980B2189060843206020680028A5
:10308000FCDB08982030089009987F1CB842BFD814
:10309000FFF70AFF7D2000032060074800218170B0
:1030A000C1700800491E6160401C0828FBD30DB0A8
:1030B000F0BD000000208000BC0C400070B50E0088
:1030C000040000F0B5FC274D0100A868814248D1FA
:1030D000254A264B811A90421AD008DC2449401810
:1030E0000ED02449401810D0012809D10DE0092044
:1030F0008002081A04D02049401809D0012807D0BE
:10310000D8690F210903884305E0D8691B4901E00C
:10311000D8691B490840D861002E22D0022C20D843
:10312000D869B1020122520211430843D8611868DC
:103130000028FCDB00F07CFCA968884211D1012C3E
:1031400002D0022C02D003E00E4900E00E491960C3
:1031500018680028FCDB7D20000318601868002830
:10316000FCDB70BDBC0C40001340C8000020800098
:10317000EDBFAEFF001D8FFF0024E8FFFF0FDFFF54
:10318000FF0FFEFE00D0076400D0076770B500286F
:1031900009D004002568A06806F086FE200006F02D
:1031A00083FE2C00F6D170BD1CB50878092806D026
:1031B0000A281AD00B2823D00C2833D10AE04878EB
:1031C000002803D0FF20833017A123E0FF208530A3
:1031D0001CA11FE04878002803D0FF208B301FA1DE
:1031E00018E0FF208D3024A114E04878002803D097
:1031F000FF20933026A10DE0FF20953029A109E0A2
:103200004878002803D0FF209B302AA102E0FF204D
:103210009D302FA101910090334B042033A237A1A0
:10322000FFF750F800201CBD676170632075706463
:1032300061746520706172616D73206661696C20D4
:1032400021000000676170632075706461746520FF
:10325000706172616D73206F6B2021006761706314
:103260002073656375726974792072657120666177
:10327000696C202100000000676170632073656342
:10328000757269747920726571206F6B202100005E
:103290006761706320626F6E64206661696C2021D3
:1032A000000000006761706320626F6E64206F6BC6
:1032B000202100006761706320656E63727970740D
:1032C000207374617274206661696C2021000000B3
:1032D0006761706320656E637279707420737461C6
:1032E0007274206F6B20210051E902006170705CE4
:1032F0006170705F7461736B2E6300004E4F5F549A
:10330000414700007CB5164C180A15000E00FF2836
:10331000A07020D0FF20563012A101910090154BD3
:10332000042015A218A1FEF7CDFF04F0A2FB3088FF
:103330002C2305222080A078010215480A31DFF7EE
:1033400009FB002228210A54DFF71DFB0421280075
:10335000DFF75AFC01E004F07DF900207CBD00009D
:10336000043E40007375626C6520636F6E6E65632A
:103370007465640031E902006170705C6170705FB7
:103380007461736B2E6300004E4F5F544147000021
:10339000020E00000EB58878FF22B8320AA1009212
:1033A000019102900F4B04200FA213A1FEF78AFF98
:1033B00004F07DFB02210520DFF726FC08F074FDF8
:1033C00004F048F900200EBD7375626C65206469D5
:1033D00073636F6E6E6563743A203078253032788F
:1033E0000000000066E902006170705C6170705F4F
:1033F0007461736B2E6300004E4F5F5441470000B1
:1034000070B50C00097819481D00002904D0012965
:103410000FD0022917D118E01C232900DFF79AFAF0
:10342000050020782870281DFEF78EFA6880280095
:1034300007E00A232900DFF78DFA217801700021C7
:103440004180DFF7A0FA002070BD0A232900DFF7D2
:1034500081FA21780170082141800A218180B421FC
:10346000C1804B21C9000181EBE700000B0E000079
:103470003EB51F4A0C00892080001EA16D4607C57D
:10348000130004201CA220A1FEF71CFF2548A288DF
:103490001FA16D4607C5164B042017A21AA1FEF7FF
:1034A00011FF2048E288401C1FA16D4607C5104B44
:1034B000042011A214A1FEF705FF1A482288801CDF
:1034C0001EA16D4607C50A4B04200BA20EA1FEF7F4
:1034D000F9FE45206288C0001DA16D4607C5044B5A
:1034E000042005A208A1FEF7EDFE00203EBD00006D
:1034F00082E90200257300006170705C6170705F8A
:103500007461736B2E6300004E4F5F54414700009F
:10351000316D61785F72785F6F6374657473203D9D
:103520002025640025020000316D61785F72785FAC
:1035300074696D65203D202564000000316D61785F
:103540005F74785F6F6374657473203D2025640039
:10355000316D61785F74785F74696D65203D2025F9
:10356000640000003EB515000E4A10481C000EA174
:10357000130002920191009004200DA210A1FEF709
:10358000A1FEE12006232A0021000001DFF7E2F975
:103590000D498180418001210170DFF7F4F900209D
:1035A0003EBD0000DCE90200257300006A02000055
:1035B0006170705C6170705F7461736B2E6300008A
:1035C0004E4F5F5441470000FFFF000010B50888D0
:1035D0000C0086B0FBF70EFE0F4B0022FBF714FD2C
:1035E000FBF72AFEA1880A220004514362880904DD
:1035F000000C090C0591029003908F20800007A118
:10360000049201910090154B042015A218A1FEF719
:1036100059FE002006B010BD0000F43F636F6E6ECF
:103620005F706172616D5F7570646174653A206D81
:10363000696E2D25646D732C206D61782D25646D68
:10364000732C206C6174656E63792D25642C207455
:10365000696D656F75742D25646D73009FE90200B7
:103660006170705C6170705F7461736B2E630000D9
:103670004E4F5F544147000010B518000C00010088
:1036800005480223DFF766F948214170217801706F
:10369000DFF779F9002010BD0D0E00007CB5087829
:1036A00000250E2845D008DC01280DD0032839D08C
:1036B0000C283ED00D285CD13BE00F2839D01028D3
:1036C00037D01B2855D121E04878002851D12A480D
:1036D000302305220921DFF73DF904000320207083
:1036E0000A20607025481B216184A084E1840120A8
:1036F000E0762000224910220A30F4F7AFFB204880
:103700001838C5702000DFF73EF932E0FEF7F2F816
:1037100000282ED102210520DFF776FA022004F0DE
:1037200071FB26E001210520DFF76EFAFEF7E2F8D3
:103730001FE04878452802D0442805D019E002212E
:103740000520DFF761FA12E002210520DFF75CFABD
:103750000C4C207800280CD0D9200BA101910090AE
:103760000C4B04200CA210A1FEF7ACFD257003F059
:1037700071FF00207CBD0000040D0000480800001F
:103780001C3E4000480A40007265737461727420E8
:10379000616476001CE902006170705C6170705FAA
:1037A0007461736B2E6300004E4F5F5441470000FD
:1037B00010B50648012305220921DFF7CBF80121C6
:1037C0000170DFF7E0F8002010BD0000020D0000DE
:1037D00010B51000DFF74DFA002010BDFFB581B025
:1037E00000266846067008880D0017006946FFF736
:1037F0004EF904000C48049906233A00DFF7AAF8B2
:103800002988002C018005D169460978052907D04F
:10381000032446800471DFF7B6F8002005B0F0BD40
:1038200002214180F6E70000180C000010B508786E
:103830001400122801D104F043FC2000DFF719FA2C
:10384000410849002000DFF7DFF9002010BD00002B
:103850001FB50E4A0C00952080000DA113000292A6
:103860000191009004200BA20EA1FEF72BFD6388AE
:10387000228814480DA16C460FC4044B042005A2F5
:1038800008A1FEF71FFD002004B010BDBEE9020034
:10389000257300006170705C6170705F7461736BA0
:1038A0002E6300004E4F5F5441470000696E642D47
:1038B0003E6D7475203D2025642C736571203D207C
:1038C0002564000055020000FFB50F0083B0002002
:1038D000694608700698000A01903888FFF7D7F803
:1038E00005000024452002F07BFD0600002D06D1D6
:1038F0006846007804280FD005280FD08025154889
:10390000059A0699A31DDFF725F83988002D018057
:103910000571448004D017E08024F0E70224EEE72C
:1039200069460978042902D0052903D00CE0B17A50
:10393000417109E001997118FF310131C97ACA0753
:10394000D20F4271120A8271DFF71DF8002007B012
:10395000F0BD0000140C0000FFB50C0081B0002089
:10396000694608700498050A2088FFF790F8070058
:1039700013D1452002F034FDE1790600A079090257
:10398000084369460978052902D0022932D003E0AC
:10399000002828D001280ED080272348039A0499B4
:1039A0000423DEF7D7FF218801808770DEF7EBFF65
:1039B000002005B0F0BD7019FF300130C17A01223E
:1039C0001143C1722900300002F002FD01001748C6
:1039D000039A0223DEF7BEFF7119FF310131057032
:1039E000C97A41701CE07019FF300130C17A490872
:1039F0004900E6E72900300002F0EAFC01000B482C
:103A0000039A8223401CDEF7A5FFA2880600A11DB1
:103A1000F4F724FA300080304570217901703000CD
:103A2000DEF7B1FFB9E70000160C00000345000007
:103A3000084801680029FCDB07490160016800298A
:103A4000FCDB00214A1E4260491C0829FBD30069A7
:103A5000704700000020800000D0073430B50D0012
:103A60000400052885B007D90E480F4A03680F499E
:103A7000002B0FA009D098471449A0004018406BB4
:103A8000284000D0012005B030BD02AC07C410A30F
:103A900001930092054B002016A225A1FEF712FC0F
:103AA000FEE70000700C40002B020000E3E502007E
:103AB0006C6576656C203C3D20454C4F475F4C560D
:103AC0004C5F564552424F5345000000F0334000D2
:103AD00028257329206861732061737365727420CF
:103AE0006661696C65642061742025733A256C6495
:103AF0002E0000002E2E5C2E2E5C2E2E5C7475790E
:103B0000615F626C655F73646B5F64656D6F5C734E
:103B100072635C6370745C656173796C6F67676511
:103B2000725C7372635C656C6F672E6300000000EB
:103B3000656C6F67000000000068704711307047C7
:103B4000007C7047002801D00149086070470000E0
:103B5000900C4000F7B502099700224AD259166826
:103B60009646204A1432D25915680207120F0123D3
:103B700094461C0008329440624693401A0401297E
:103B800014D0002916D0032917D09E4334431100C6
:103B9000294305072D0F0120A840029B0006002B9A
:103BA00010D0012B12D0022B15D112E03343A343C6
:103BB0001C0004E033431C43E9E733431C43290062
:103BC0009143E6E722438243140004E09443044314
:103BD00001E0944384437046046002481430C059A5
:103BE0000160FEBD940C400002070109120F88001D
:103BF0000449085800680004000ED040C007C00FF8
:103C000070470000A80C400010B5094C0020A060CF
:103C10000848016882139143016007480168002940
:103C200001D0206988470020C043206110BD0000FA
:103C30004065800040008000900C40000209930025
:103C4000074A10B5D458226800070123000F8340AB
:103C5000002901D01A4300E09A43226010BD000001
:103C6000A80C400070402DE900C0A0E10140A0E197
:103C70000030A0E30000A0E30010A0E30000A0E1FA
:103C8000180000EA0350DCE70F60A0E3451206E0ED
:103C9000090051E3020000CA305081E20050C2E73F
:103CA000010000EA575081E20050C2E7015080E273
:103CB000FF0005E20350DCE70F1005E2090051E3C5
:103CC000020000CA305081E20050C2E7010000EA61
